:100ADB005354433848344B3634544C5220525443BD
:100AEB0020546573742050726F6772616D6D652150
:100AFB000D0A00566F6C74616765203D20252E3200
:040B0B0066560A0020
:100B4000E598543F4440F59875D7D075D6FF438E4D
:020B500015226C
:080B6D008F993099FDC2992215
:060B7500AE07120B6D2219
:0E0B520000007F2B7E067DCBDDFEDEFCDFFA91
:010B60002272
:100B0F0043BC400000E5BC30E5FB53BCDFE5BD5402
:100B1F000FFEADBEEDFFAC06E41202A6E4FBFA79C0
:100B2F007A78431200FBE4FBFA79807845120204CD
:010B3F002293
:100A0D00E4F593F594F591F592F595F596F5B1F527
:100A1D00B2F5B3F5B4F5C9F5CA120B40D2AF7BFFF1
:100A2D007A0A79DB120600E4F59275910143BA80DA
:0F0A3D0090FEA8743FF053BA7F75DE2F75BC8012
:100A4C00E4F525F524F523F522F528F529AB25AA9F
:100A5C0024A923A822C000C001C002C003120B0F9E
:100A6C00D003D002D001D00012000A8F258E248D25
:100A7C00238C220529E52970020528C39408E52852
:100A8C006480948040C7AF25AE24AD23AC22E4FB38
:100A9C00FAF978411202048F258E248D238C2212B0
:100AAC0002DF8E268F27E4FBFA79C87842AF25AE99
:100ABC0024AD23AC221202048F308E2F8D2E8C2D60
:0C0ACC007BFF7A0A79FE120600120B5222
:030AD800020A4CC3
:1000030002034BE86480F8E933E83360110460F0DD
:10001300ED33EC337009E8FCE9FDEAFEEBFF220463
:1000230060DED3EB9FEA9EE99DE8C2E78CF0C2F75E
:1000330095F0400CE8CCF8E9CDF9EACEFAEBCFFB2A
:1000430012031685D0F05804700320D5B3E804706A
:10005300075002B2D502035592D5EC0460F7E4CC05
:10006300C0E0C398F8603B94186008400DD0E0FBF3
:1000730002032DE4FBFAC9FC8028E830E406E4C956
:10008300FBE4CAFCE830E305E4C9CACBFCE8540747
:100093006010F8C3E913F9EA13FAEB13FBEC13FC52
:1000A300D8F130F52FC3E49CFCEF9BFFEE9AFEEDF5
:1000B30099FDD0E0FBEF4E4D4C701222DB0302039F
:1000C30052EC2CFCEF33FFEE33FEED33FDED30E766
:1000D300EB02032DEF2BFFEE3AFEED39FDD0E0FBF3
:1000E30050130BBB0003020355ED13FDEE13FEEF9C
:0800F30013FFEC13FC02032DC6
:1000FB00EC4D6011E8497017ED33EC3304600DE4FF
:10010B00FCFFFEFD22E933E8330470F802034B12C7
:10011B00031658046009E4CC2481500628500902C8
:10012B000355284003020352C0E0EB4A7044B980E8
:10013B0006D0E0FB020341EF4E701CBD8008EBFFC5
:10014B00EAFEE9FD80EBE98DF0A4FEE5F00201E4A7
:10015B00E9CDF9EAFEEBFFEF89F0A4FCE5F0CE89DF
:10016B00F0A42EFFE435F0CD89F0A42DFEE435F09C
:10017B008067EF4E7005BD80D780C3EF8BF0A4ACCA
:10018B00F0EE8BF0A42CFCE435F0F8EF8AF0A42C05
:10019B00E5F038FCE433CB8DF0A42CFCE5F03BF818
:1001AB00EE8AF0A42CFCE5F038F8E433CF89F0A408
:1001BB002CFCE5F038CF3400CE89F0A42FFFE5F00E
:1001CB003EFEE433C98DF0A42EFEE5F039CD8AF066
:1001DB00A42FFFE5F03EFEE43DFD33D0E0FB5007DE
:1001EB000BBB000F020355EC2CFCEF33FFEE33FE81
:0601FB00ED33FD02032DAF
:10020100020355EC5D046005E85904700302034BD9
:10021100120316580460F6EC4860F2EC7004FDFE1F
:10022100FF22C860DB2481C85009C39860025006D0
:100231000203529850CAF582E9294B4A7005AB82F4
:1002410002034175F0007C1A7880C3EF9BEE9AEDB2
:1002510099400DC3EF9BFFEE9AFEED99FDE842F048
:10026100DC23ACF0D0E0FFD0E0FED0E0FDAB82209B
:10027100E7101BEB60BAEC2CFCEF33FFEE33FEED25
:1002810033FD02032DE803F830E705C0F075F000F7
:10029100EF2FFFEE33FEED33FD40B830E7C280AA09
:1002A10075F020800E75F010800575F0087D007ED8
:1002B100007F003392D530D50312055AEC3340103C
:1002C100EF33FFEE33FEED33FDEC33FCD5F0ED22E1
:0E02D100E5F0247EA2D513CC92E7CDCEFF221D
:1002DF00EDD2E7CD33EC3392D524814006E4FFFE17
:1002EF00FDFC22FCE4CFCECDCC24E0501174FF8076
:1002FF00EDC3CC13CCCD13CDCE13CECF13CF047013
:07030F00F030D5DE02055AB3
:10059E00E541242DF8E6054122782A300702782D10
:1005AE00E475F0011205680205022000EB7F2ED2E1
:1005BE00008018EF540F2490D43440D4FF30040B35
:1005CE00EF24BFB41A0050032461FFE54260021508
:1005DE00420545E5457002054430070D782AE4755D
:1005EE00F001120568EF020548020B757403D2077D
:1005FE008003E4C207F5418B2A8A2B892CE4F5424D
:10060E00F544F545E54260077F201205D980F57562
:10061E0043FFC201C200C202C203C205C206C20823
:10062E001205A7FF700D3007057F001205EAAF45D2
:10063E00AE4422B4255FC2D5C2041205A7FF24D052
:10064E00B40A00501A75F00A784230D50508B6FF84
:10065E000106C6A426F620D5047002D20380D92442
:10066E00CFB41A00EF5004C2E5D2040208D7D2016B
:10067E0080C6D20080C0D20280BCD2D580BAD2054C
:10068E0080B47F201205D92002077401B5420040C4
:10069E00F112059EFF1205D9020612D208D206806B
:1006AE009512059EFB12059EFA12059EF94A4B7095
:1006BE000679CE7A097BFF20022EE542602A7E0063
:1006CE008E8275830012051B60060EEE654370F078
:1006DE00C2D5EBC0E0EAC0E0E9C0E0EE120937D0C7
:1006EE00E0F9D0E0FAD0E0FB120502FF60AAEBC001
:1006FE00E0EAC0E0E9C0E01205D9D0E02401F9D06B
:10070E00E03400FAD0E0FBE5430460DCD543D98049
:10071E0087D20280A212091A60F7E5437001041213
:10072E000360A943600DE543600914F5431209C146
:10073E00EF60F3EA30E702F404C3995077EAF42548
:10074E00430430E701E404F543800D12091A60C139
:10075E00EA05432543120360EA7840F630E701E4E8
:10076E00254304D5430420050114120937E4C0E0E3
:10077E001209C17840E6601320E70714F61205C18E
:10078E00802204F6D0E014C0E07F001205C1E543DC
:10079E0060071205B81543800B3005031205B8D05B
:1007AE00E0020612D0E00480C512091A60A0E543EB
:1007BE00041203607840EAF6E54320050260010466
:0507CE002404120937AC
:1007D30074FF04C0E01209C11205C1E543200502FC
:1007E30060031205B8D0E0B543E87F451205CB7826
:1007F30040E67F2B30E7047F2DF404C0E01205D9D7
:10080300D0E075F00A84C0F01205C2D0E01205C230
:10081300020612791080027908C206C2088008D243
:10082300D5790A8004790AC2D5E543047002F543F9
:10083300E4FAFDFEFF12059EFC7B0820011312055E
:100843009EFD7B1030000A12059EFE12059EFF7B63
:1008530020EC3382D592D55013C3E43000069FFFBA
:10086300E49EFEE42001039DFDE49CFCE4CBF8C27E
:1008730001EC700CCFCECDCCE824F8F870F38017E0
:10088300C3EF33FFEE33FEED33FDEC33FCEB33FB11
:10089300994002FB0FD8E9EB300105F8D0E0C448DA
:1008A300B201C0E00AEC4D4E4F78207B0070C2EAE3
:1008B300B5430040BCC0E0120939D0F0D0E02001BC
:1008C30004C4C0E0C4B201C0F01205C2D0F0D5F038
:1008D300EB02061212057806AF5308165806804C31
:1008E300067C42081A4F0822440822490695430809
:1008F300285507594607B74507234709EE5006848D
:100903002D06882E06AB2B068C2306A92009D72A91
:10091300064448000006A3E543B4FF0375430612EB
:10092300059EFC12059EFD12059EFE12059EFF7894
:100933003902038F790AA2D5200314300509B910AF
:10094300020404B9080104A2D520060250010420C0
:1009530002689202B542005034C0E07F2030031990
:100963007F30A20272067205500F120990C202C2B2
:1009730006C205C2087F30800F300503E9C0E012CC
:1009830005D9300503D0E0F9D0E0B542CC300517E6
:100993007F30B9100C1205D97F583004077F788057
:1009A30003B908031205D93002057F2D0205D97F4B
:1009B300202008F87F2B2006F322920280CF7F00AD
:1009C300B4070050052439F8E6FF22286E756C6CD5
:1009D3002900D20112059E3001F8C201784230D5B8
:1009E3000108F60206442D5043495812059E24037C
:1009F300B405004001E49009E9931205CA743A1260
:0A0A030005CAD2037542040208166A
:10031600E9D2E7C933E833F892D5EDD2E7CD33EC2D
:0703260033FC5002B2D522A6
:10032D00EC30E7100FBF000C0EBE00080DBD000431
:10033D000BEB6014A2D5EB13FCED92E7FD2274FFDD
:10034D00FCFDFEFF22E480F8A2D574FF13FC7D8036
:03035D00E480EF4A
:10036000F920E72824F950037907E4F42402FB1864
:10037000DBFDE624FB5014E9600DE4F618E604F614
:0F038000B40A08E4F6D9F57401F60A22C2D522B0
:10038F00ED33EC3392D5FA602AB4FF33EDC2E77B3D
:10039F00FF60067A0379B4E4227A0379BD20D5048D
:1003AF007A0379B8224E614E002B494E46002D49F3
:1003BF004E4600E47A08F608DAFC7B00740722E860
:1003CF00C0E0ECC0E0EDC0E0EEC0E0EFC0E0EA75E9
:1003DF00F010A4CAABF075F04DA42BFBE435F0FC84
:1003EF00EA2410FAEB34C5FBEC34D9FCEDC2E7FF7D
:1003FF0075F056A4F42411C5F0F434C58FF0A42A77
:10040F00E5F03BE43CF620E7141204C2D0E0FFD045
:10041F00E0FED0E0FDD0E0FC1202048014F40412E0
:10042F0004C2D0E0FFD0E0FED0E0FDD0E0FC12002F
:10043F00FBD0E0F8E6FAEDD2E7CD33EC332482FBC4
:10044F00E4C3CF33CFCE33CECD33CD33DBF37B0706
:10045F0075F00A846004F6081B0AE5F0F6088FF0C1
:10046F00740AA4FFACF08EF0740AA42CFEACF0500A
:10047F00010C8DF0740AA42CFDE435F0F608DBDED8
:03048F00740722CD
:100492003F8000004120000042C80000447A000072
:1004A200461C400047C35000497424004B189680F4
:1004B2004CBEBC205A0E1BCA6753C21C749DC5AEEB
:1004C200FB60065407601C23231204F0EB543860CF
:1004D200091204DC1204EB1200FBECF8EDF9EEFA5F
:1004E200EFCB22EB1204EB80F1543803241C90046E
:1004F20092FE93FC0EEE93FD0EEE930ECE93FF2230
:03000000020B618F
:0C0B6100787FE4F6D8FD758145020A0D8E
:10050200BB010689828A83E0225002E722BBFE02F7
:09051200E32289828A83E493222A
:10051B00BB010CE58229F582E5833AF583E0225095
:10052B0006E92582F8E622BBFE06E92582F8E222DF
:0D053B00E58229F582E5833AF583E49322F9
:10054800BB010689828A83F0225002F722BBFE0192
:02055800F3228C
:0E055A00C3E49FFFE49EFEE49DFDE49CFC22B2
:10056800FAE6FB0808E6F925F0F618E6CA3AF62294
:10057800D083D082F8E4937012740193700DA3A312
:1005880093F8740193F5828883E473740293686026
:06059800EFA3A3A380DF26
:00000001FF
