:03000000020144B6
:0C014400787FE4F6D8FD75812002000EE3
:10000E0043BA80E4F593F594F591F592F595F5964E
:10001E00F5B1F5B2F5B3F5B4F5C9F5CAF5CBF5CC36
:10002E00F5E1F5E2C200C201C202C203F508F5090C
:10003E00750A01F50B750C02F50D750E04F50F75AD
:10004E008E80758CA2758A40D2A9D28C90FECCF08F
:10005E00A3F090FEC87468F0A3F0A3F0A3F0A3740D
:10006E0055F0A3F090FED27403F0A374FFF090FE4F
:10007E00B1E4F0E04401F0E04402F0E04404F0E0CA
:10008E004408F0E04410F0E04420F0E04440F0E09A
:10009E004480F0A3E4F0E04401F090FEDD7480F0C3
:0B00AE0090FEC0E04401F0D2AF80FEE5
:03000B000200B937
:1000B900C0E0C0F0C083C082C0D075D000C000C00D
:1000C90001C002C003C004C005C006C00720001556
:1000D9000509E50970020508D394FFE50894034072
:1000E90019D2008015E509150970021508D3E5092B
:1000F9009400E50894005002C200120121D007D0F3
:1001090006D005D004D003D002D001D000D0D0D081
:0801190082D083D0F0D0E03267
:10012100E50890FED5F0A3E509F0E50AA3F0A3E503
:100131000BF0E50CA3F0A3E50DF0E50EA3F0A3E5AC
:030141000FF0229A
:00000001FF
