:1000B30012086E1206AF1208D7D2AF12028D3002A9
:0800C300FAC2021204A080F34E
:10086E0043BA8053B2FC43B10390FE077480F090FC
:0D087E00FE07E030E0F9E4F5DC75F49022AF
:1006AF00E4FDFF1208EE7D817F011208EE7D3F7F92
:1006BF00071208EE7D3F7F091208EE7D077F0B12B0
:1006CF0008EE7D017F011208EE751002E4F511F5B9
:0906DF0017F518C20043AF802298
:0908A700E4FD7F0E1208EE7F1142
:1008B000E5FC20E7FBEF4480F5FCE5FC20E7FBAF1F
:0108C000EC4B
:0108C1002214
:0408EA007D407F11BD
:0D08EE00E5FC20E7FBEF547FF5FC8DEC22CC
:0806E8008B248A258926AE0748
:1006F0007F161208B0AD07AC05AF051DEF6019AF4E
:10070000061208B0AB240526E526AA2570020525A9
:0A07100014F9EF12079180E1AF0425
:01071A0022BC
:1007A3008B258A268927AE07AF281528EF6019AF56
:1007B30006AB250527E527AA267002052614F9129C
:0907C3000778FD1208EE80E02227
:0300CB0002030F1E
:10030F00C0E0C0F0C083C082C0D075D000C000C0B4
:0D031F0001C002C003C004C005C006C00735
:10032C007F061208B08F217F021208B08F227F0443
:10033C001208B08F23E52130E10312000AE52130C9
:10034C00E20312082FE52230E003120384E5223089
:0D035C00E10312088BE52130E00312094394
:10036900D007D006D005D004D003D002D001D000E8
:0B037900D0D0D082D083D0F0D0E03292
:01000A0022D3
:10082F00E4FDFF1208EE751002E4F5110D7F0E12B4
:10083F0008EE7D487F111208EEE4FD7F0E0208EEF0
:010943002291
:100384001208A7AE07EE30E20B54DFFD7F1112080E
:10039400EEE4F511EE30E408547FFD7F111208EE0F
:1003A400E51124FD603D14603D2404703CEE30E012
:1003B400387B007A0079087F201206E8AF0FAE0E72
:1003C4001208FB8E0E8F0FE508546024E0600B24A6
:1003D400E0600A244070090203EE02074B02093D63
:0903E40002090A0204481206365F
:0103ED0022ED
:0A090A007511057D607F110208EEF3
:090928007511031208EA020448EB
:0A0914007511047D407F110208EE0A
:0A091E00E4F5117D487F110208EE98
:100448001208A7EF20E150D3E5139440E512940079
:1004580040047F408002AF13AC07AB14AA15A9165D
:100468008C287F201207A3ECFFC3E5139FF513E543
:10047800129400F512EF2516F516E43515F515E575
:10048800134512700B7D0A7F111208EEE4F5112254
:070498007D027F111208EE46
:01049F00223A
:100636001208A7EF30E037AB14AA15A9167F2012CF
:1006460006E8EFFDC3E5139DF513E5129400F512D8
:10065600EF2516F516E43515F515E5134512700B5D
:0E0666007D487F111208EEE4F511221208EA19
:010674002263
:10088B007D011208A9AE07EE30E5031208EAEE303F
:0B089B00E207E4FD7F111208EEC2002E
:0108A600222F
:100168001201000200000040BF3404FF0001010238
:100178000001090229000101008032090400000180
:100188000301020009210101000122320007058153
:100198000303000A0000000000000005010902A195
:1001A800010901A100050919012903150025017597
:1001B8000195038102750595018101050109300941
:1001C800311581257F750895028106C0C004030991
:1001D8000408035300540043001C03530054004315
:1001E80000200055005300420020004D006F0075AC
:0901F80000730065000000010025
:06000300011900011A00C2
:10074B00E50924FE601714601A24FA600D1460107A
:10075B00146013240A70120207CC0207ED02080E74
:0D076B000208C202093102093412090A22F3
:1007CC00E510B40406E50864A1600302090A751477
:1007DC0001751500751600850E12850F1312092868
:0107EC0022EA
:1007ED00E510B40406E5086421600302090A7514D6
:1007FD0001751500751600850E12850F131209145B
:01080D0022C8
:10080E00E510B40406E50864A1600302090A751434
:10081E000075150075161B75120075130112092847
:01082E0022A7
:1008C200E510B40406E5086421600302090A850BF9
:0508D2001B12091E22AB
:0309310002090AAE
:0309340002090AAB
:10028D00E5106404707B200078300175C201E4F53F
:10029D0029F52AF52BE5192481603524C0602C241D
:1002AD00E0602324F0601A24F4601124FE60081429
:1002BD007021752901801C7529048017752902800C
:1002CD0012752AFC800D752A048008752BFC80039D
:1002DD00752B0453AF7FD2007D017F0E1208EEE423
:1002ED00F52C7429252CF8E6FD7F211208EE052C3E
:1002FD00E52CC3940340EB7D017F111208EE43AF53
:01030D00806F
:01030E0022CC
:1004A000E4F594F593F596F595FF20A40B20A406AA
:1004B000C2A07FFE8002D2A020A50B20A506C2A06C
:1004C0007FFB8002D2A020A60B20A606C2A07FBF81
:1004D0008002D2A020A70B20A706C2A07F7F8002A7
:1004E000D2A0EF651960068F19751A1422E51A60FB
:0604F00005D51A02D2013D
:0104F60022E3
:1003EE00E509B40D00504F9003FCF8282873020461
:1003FE002302042602044402042902044402042CAB
:10040E0002042F02043202043502043802043B02B5
:10041E00043E0204410200CE02054E0205A1020670
:10042E007502000E0209370205F30204F702071BDC
:0A043E0002084F02093A12090A22CF
:1000CE00E50830E74DE50B7049E50A7045E50F642C
:1000DE0002450E6002807CE508540F146011146016
:1000EE00282402706EE50D7004E50C60118064E545
:1000FE0010B40408E50D7004E50C6002805575140B
:10010E00FF7515017516FD8040E510B40404E50D6C
:10011E006002803FE50C540FFFE50C247F703274B3
:10012E00017E00A807088005C333CE33CED8F9FF71
:10013E00EF5517600B7514FF7515017516FF8009C5
:10014E007514FF7515017516FD7512007513028075
:09015E0005800002090A120928BB
:010167002275
:10054E00E510B40417E508B40212E50D703EE50B94
:10055E00703AE50A7036E50F450E6002802EE50C06
:10056E00540FFDE50C247F70237401A8050880024A
:10057E00C333D8FCF452177F0E1208EE7D407F1164
:10058E001208EEE4FD7F0E1208EE800302090A1235
:02059E00091E34
:0105A0002238
:1005A100E510B40417E508B40212E50D703DE50B42
:1005B1007039E50A7035E50F450E6002802DE50CB6
:1005C100540FFDE50C247F70227401A805088002F8
:1005D100C333D8FC42177F0E1208EE7D107F111233
:1005E10008EEE4FD7F0E1208EE800302090A1209EB
:0105F1001EEB
:0105F20022E6
:10067500E5087019E50D7015E50C7011E50B700DA9
:10068500E50AC394805006E50F450E600302090A8A
:10069500850A24AD24E4FF1208EEE52460057510F3
:0906A50003800375100212091E06
:0106AE002229
:10000E00E50820E70302009BE50B24FE601C14604C
:10001E002A24E16067242170747514FF751501752B
:10002E00166875120075131280667514FF7515012A
:10003E0075167A7512007513298055E50A14601825
:10004E00146026240270337514FF7515017516D5CC
:10005E0075120075130480387514FF751501751629
:10006E00D975120075130880277514FF7515017563
:10007E0016E175120075131C801680117514FF752C
:10008E0015017516A3751200751332800302090A45
:10009E00D3E513950FE512950E4006850E12850FCA
:0500AE001312092822D5
:0309370002090AA8
:1005F300E508B48018E50B7014E50A7010E50D707A
:100603000CE50C7008E50F6401450E600302090A4E
:10061300E510B4040B7514FF7515017516FF8009F9
:100623007514FF7515017516FD751200751301120A
:0306330009282271
:1004F700E51064026016E5087012E50B700EE50D55
:10050700700AE50C7006E50F450E600302090AE55F
:100517000A64017025751004F517F5187D017F0E23
:100527001208EE7D207F121208EE7D087F10120858
:10053700EEE4FD7F0E1208EE80097510037517FFB4
:070547007518FF12091E22C6
:10071B00E510B40415E508B48110E50B700CE50D7C
:10072B007008E50F6401450E600302090A7514FF9A
:10073B007515017516FD7512007513011209282226
:10084F00E510B40413E508B4010EE50B700AE50DCD
:0F085F007006E50F450E600302090A12091E22FA
:03093A0002090AA5
:03093D0002090AA2
:0408FB008E248F2593
:0A08FF00852526852427AE26AF27A5
:0109090022CB
:1008D700C202438E805389F0758A40758CA2D28CF0
:0308E700D2A92271
:03000B00020940A7
:03094000D20232AE
:03000000020201F8
:0C020100787FE4F6D8FD75812C020248DD
:10077800BB010689828A83E0225002E722BBFE027F
:09078800E32289828A83E49322B2
:10079100BB010689828A83F0225002F722BBFE0147
:0207A100F32241
:10020D000200B3E493A3F8E493A34003F68001F254
:10021D0008DFF48029E493A3F85407240CC8C333F2
:10022D00C4540F4420C8834004F456800146F6DFC1
:10023D00E4800B0102040810204080900003E47E4E
:10024D00019360BCA3FF543F30E509541FFEE493B6
:10025D00A360010ECF54C025E060A840B8E493A37D
:10026D00FAE493A3F8E493A3C8C582C8CAC583CAA8
:10027D00F0A3C8C582C8CAC583CADFE9DEE780BE60
:0100090000F6
:00000001FF
