:1003EC001201000200000040BF3403F000010102C2
:1003FC0000010902290001010080320904000002F9
:10040C0003000000092101010001221B00070581E6
:10041C000340000107050103400001050C0901A17F
:10042C0001150025FF750895400901B102090181EC
:10043C000209019102C0040309040803530054008B
:10044C0043001E035300540043002000550053008A
:10045C0042002000440065007600690063006500DE
:10000E00E4F593F594F591F592F595F596F5B1F530
:10001E00B2F5B3F5B4F5C9F5CAF5CBF5CCF5E1F506
:10002E00E27F407EA21205E71205BC1204C4D2AFD5
:10003E0090004074AAF0A37455F0A37402F07F03ED
:10004E00EFC3944074809480500F74402FF582E477
:10005E003400F583E4F00F80E73000FDC20005198F
:10006E00E51970020518C3942CE518940140EAE4D2
:10007E00F518F5197F0F1205768E108F117F03126A
:10008E0005768E2C8F2DE52C900043F0A3EFF0E536
:10009E0010A3F0A3E511F07B017A0079407D0712E1
:0900AE00059A900047EFF080B0C4
:1005D500E5FC20E7FBEF4480F5FCE5FC20E7FBAFFD
:0105E500EC29
:0105E60022F2
:0700B7001200BE7D017F0E67
:0D00BE00E5FC20E7FBEF547FF5FC8DEC2204
:08051A008B278A288929AE070E
:100522007F161205D5AD07AC05AF051DEF6019AFFB
:10053200061205D5AB270529E529AA287002052848
:0A05420014F9EF1204B280E1AF04D7
:01054C00228C
:10054D008B288A29892AAE07AF2B152BEF6019AF9F
:10055D0006AB28052AE52AAA297002052914F912E5
:09056D00046CFD1200BE80E022C6
:1004C400E4F5B275B10343BA8090FE097407F09065
:1004D400FE077480F090FE07E030E0F953BA7FE441
:1004E400F5DC75F49043B68043B580FDFF1200BE81
:1004F4007D080F1200BE7D3F7F071200BE7F0912E8
:1005040000BEE4FD7F0B1200BE0D7F011200BEE4AD
:06051400F51243AF802246
:0300CB000200CE62
:1000CE00C0E0C083C082C0D075D000C001C002C0E5
:0900DE0003C004C005C006C00700
:1000E7007F061205D5AE077F021205D58F217F0443
:1000F7001205D58F22EE30E2141200BA7D407F112F
:100107001200B77D807F141200BE751200E5212012
:10011700E00302034DE4FD7F0E1200BE7F111205BE
:10012700D58F23E52330E20B54FBFD7F111200BE70
:10013700751200E52330E4084480FD7F111200BEEC
:10014700E51224FE70030202BB14700302030B24A2
:1001570003600302034DE52320E00302034D7512FC
:10016700017B007A0079087F2012051A850F138515
:100177000E14E508546024E0700302026524206031
:1001870003020290E50924FA603824FD600D240477
:100197006003020290AD0AE4FF80211200BA7D20BD
:1001A7007F121200BE7D087F101200B71D7F12124A
:1001B70000BE7D080F1200BEE4FD7F0E1200BE02D6
:1001C7000293751202E50B24FE601C14602A24E1D9
:1001D7006065242170727515FF7516037517EC7528
:1001E700250075261280647515FF7516037517FEB1
:1001F7007525007526298053E50A146018146026B2
:10020700240270447515FF7516047517427525008D
:1002170075260480367515FF7516047517467525FE
:100227000075260880257515FF75160475174E7518
:10023700250075261E80147515FF7516047517277A
:1002470075250075261B80037512FFC3E5269514D7
:10025700E52595135036852513852614802EE50947
:1002670024F760151460252409701C75150175168F
:1002770000751780751202801375150175160075C4
:100287001780751203800580007512FFE512146050
:100297001B24FE60142404601624FD600302034D32
:1002A7007D407F111200BE801302034602033A7D90
:1002B7006002033CE52330E10302034DD3E51494C8
:1002C70040E513940040047F408002AF148F24ABB5
:1002D70015AA16A91785242B7F2012054DAF247E5A
:1002E70000C3E5149FF514E5139EF513EF2517F5E5
:1002F70017EE3516F516E514451370047D0A80359B
:100307007D02803DE52330E03DAB15AA16A9177F96
:100317002012051A8F247E00C3E5149FF514E513F8
:100327009EF513EF2517F517EE3516F516E5144567
:1003370013700C7D487F111200BE75120080077D77
:10034700407F111200BEE52130E1221200BA7F1171
:100357001205D58F23E52330E5077D407F11120075
:10036700BEE52330E207E4FD7F111200BEE522302F
:10037700E15C1200BA7F141205D58F23E52330E61E
:10038700077D807F141200BEE52330E0417B017AB0
:100397000079007F2112051AE4FD7F141200BE9038
:1003A7000000E064AA7027A3E064557021A3E0640D
:1003B70001701B0D7F0E1200BE7B017A007940751C
:0E03C7002B407F2112054D7D017F111200BEDB
:1003D500D007D006D005D004D003D002D001D0D0AC
:0703E500D082D083D0E0328A
:1005BC004391085392F743BA8090FEA8743FF053CE
:0905CC00BA7F75DE2F75BC802298
:1005E700AD07AC06758E808C8CAF058F8AD2A9D2E9
:0205F7008C2254
:10057600E4F5BDF5BEE5BC54F044404FF5BC0000C3
:100586000000E5BC542060FA53BCDFAFBDEFFEAD02
:04059600BEEDFF2295
:03000B00020003ED
:03000300D20032F6
:06059A008B2E8A2F893030
:1005A000E4FFFEEEC39D5013AB2EAA2FA9308E821E
:0B05B0007583001204852FFF0E80E809
:0105BB00221D
:030000000205F9FD
:0C05F900787FE4F6D8FD75813002000E1A
:10046C00BB010689828A83E0225002E722BBFE028E
:09047C00E32289828A83E49322C1
:10048500BB010CE58229F582E5833AF583E022502C
:1004950006E92582F8E622BBFE06E92582F8E22276
:0D04A500E58229F582E5833AF583E4932290
:1004B200BB010689828A83F0225002F722BBFE0129
:0204C200F32223
:00000001FF
