:10050F005354433848344B3634544C52205254438E
:10051F0020546573742050726F6772616D6D652121
:10052F000D0A00596561723D32302562642020004A
:10053F004D6F6E74683D2562642020004461793DE3
:10054F00256264202000486F75723D25626420206B
:10055F00004D696E7574653D2562642020005365FA
:0E056F00636F6E643D2562642020000D0A005B
:10005300E598543F4440F59875D7D075D6FF438E45
:02006300152264
:080114008F993099FDC2992278
:06006500AE071201142297
:03006B0002057D0E
:0D057D00C0E0C083C082C0D075D000C007B0
:10058A00AFBA43BA8090FE63E030E306E054F7F076
:04059A00D2098FBA39
:0B059E00D007D0D0D082D083D0E03254
:10006E00E4F593F594F591F592F595F596F5B1F5D0
:10007E00B2F5B3F5B4F5C9F5CA120053120003D2A6
:10008E00AF7BFF7A05790F1201873009FDC2094354
:10009E00BA807BFF7A05793290FE70E0F50B120183
:1000AE00877BFF7A05793F90FE71E0F50B12018791
:1000BE007BFF7A05794B90FE72E0F50B1201877B80
:1000CE00FF7A05795590FE73E0F50B1201877BFFE1
:1000DE007A05796090FE74E0F50B1201877BFF7A4A
:1000EE0005796D90FE75E0F50B1201877BFF7A05A1
:0A00FE00797A12018753BA7F8090CF
:1000030043BA8090FE047480F090FE04E030E0F97F
:1000130090FE61E04402F090FE687417F0A3740848
:10002300F0A37406F0A37416F0A37403F0A3743260
:10003300F0A3E4F090FE61E04401F090FE63E4F08D
:1000430090FE627408F090FE607401F053BA7F2250
:02012300016B6E
:03000000020108F2
:0C010800787FE4F6D8FD75812102006EBE
:10012500E517240BF8E60517227808300702780B47
:10013500E475F0011204D90204812000EB7F2ED270
:10014500008018EF540F2490D43440D4FF30040BB2
:10015500EF24BFB41A0050032461FFE518600215AF
:1001650018051BE51B7002051A30070D7808E475A4
:10017500F0011204D9EF0204C70200657403D20727
:100185008003E4C207F5178B088A09890AE4F51884
:10019500F51AF51BE51860077F2012016080F575DB
:1001A50019FFC201C200C202C203C205C206C208CB
:1001B50012012EFF700D3007057F00120171AF1B74
:1001C500AE1A22B4255FC2D5C20412012EFF24D077
:1001D500B40A00501A75F00A781830D50508B6FF2C
:1001E5000106C6A426F620D5047002D20380D924C0
:1001F500CFB41A00EF5004C2E5D204020371D20154
:1002050080C6D20080C0D20280BCD2D580BAD205C9
:1002150080B47F201201602002077401B5180040E8
:10022500F1120125FF120160020199D208D2068060
:1002350095120125FB120125FA120125F94A4B7089
:100245000679427A047BFF20022EE518602A7E009B
:100255008E8275830012049A60060EEE651970F0A1
:10026500C2D5EBC0E0EAC0E0E9C0E0EE1203B8D0C9
:10027500E0F9D0E0FAD0E0FB120481FF60AAEBC000
:10028500E0EAC0E0E9C0E0120160D0E02401F9D065
:10029500E03400FAD0E0FBE5190460DCD519D9801B
:1002A500877BFF7A0379B4D202809C79108002792A
:1002B50008C206C2088008D2D5790A8004790AC224
:1002C500D5E519047002F519E4FAFDFEFF120125C2
:1002D500FC7B08200113120125FD7B1030000A125A
:1002E5000125FE120125FF7B20EC3382D592D550E6
:1002F50013C3E43000069FFFE49EFEE42001039D46
:10030500FDE49CFCE4CBF8C201EC700CCFCECDCC67
:10031500E824F8F870F38017C3EF33FFEE33FEEDF2
:1003250033FDEC33FCEB33FB994002FB0FD8E9EBD3
:10033500300105F8D0E0C448B201C0E00AEC4D4EEA
:100345004F78207B0070C2EAB5190040BCC0E012AE
:1003550003BAD0F0D0E0200104C4C0E0C4B201C0AB
:10036500F0120149D0F0D5F0EB0201991204E9022F
:10037500365302B05802074C02034202B44F02BC86
:0F0385004402BC49021C4302C25502A64602A60E
:100394004502A647046250020B2D020F2E02322B97
:1003A400021323023020044B2A01CB480000022A06
:1003B4003F3F3F00790AA2D5200314300509B91044
:1003C400020404B9080104A2D52006025001042045
:1003D40002689202B518005034C0E07F203003193F
:1003E4007F30A20272067205500F120411C202C2BB
:1003F40006C205C2087F30800F300503E9C0E01251
:100404000160300503D0E0F9D0E0B518CC30051711
:100414007F30B9100C1201607F583004077F788058
:1004240003B908031201603002057F2D0201607FC9
:10043400202008F87F2B2006F322920280CF286E1A
:10044400756C6C2900D2011201253001F8C20178C3
:100454001830D50108F60201CB2D5043495812013A
:10046400252403B405004001E490045D9312015176
:0D047400743A120151D2037518040202B04F
:10048100BB010689828A83E0225002E722BBFE0279
:09049100E32289828A83E49322AC
:10049A00BB010CE58229F582E5833AF583E0225017
:1004AA0006E92582F8E622BBFE06E92582F8E22261
:0D04BA00E58229F582E5833AF583E493227B
:1004C700BB010689828A83F0225002F722BBFE0114
:0204D700F3220E
:1004D900FAE6FB0808E6F925F0F618E6CA3AF62224
:1004E900D083D082F8E4937012740193700DA3A3A2
:1004F90093F8740193F5828883E4737402936860B6
:06050900EFA3A3A380DFB5
:00000001FF
