:1009E800120994120773120A28D2AF120243300276
:0809F800FAC20212066080F34E
:1009940043BA8053B2FC43B10390FE077480F090D5
:0D09A400FE07E030E0F9E4F5DC75F4902288
:10077300E4FDFF120A3F7D817F01120A3F7D3F7F27
:1007830007120A3F7D3F7F09120A3F7D077F0B1245
:100793000A3F7D017F01120A3F752902E4F52AF51C
:0907A30030F531C20043AF8022A1
:0909CD00E4FD7F0E120A3F7F11C8
:1009D600E5FC20E7FBEF4480F5FCE5FC20E7FBAFF8
:0109E600EC24
:0109E70022ED
:040A3B007D407F116A
:0D0A3F00E5FC20E7FBEF547FF5FC8DEC2279
:0807AC008B0B8A0C890DAE07CE
:1007B4007F161209D6AD07AC05AF051DEF6019AF62
:1007C400061209D6AB0B050DE50DAA0C7002050C3B
:0A07D40014F9EF1208B680E1AF043B
:0107DE0022F8
:1008C8008B0D8A0E890FAE07AF101510EF6019AFA8
:1008D80006AB0D050FE50FAA0E7002050E14F912EE
:0908E800089DFD120A3F80E02288
:0300CB0002036DC0
:10036D00C0E0C0F0C083C082C0D075D000C000C056
:0D037D0001C002C003C004C005C006C007D7
:10038A007F061209D68F087F021209D68F097F04C9
:10039A001209D68F0AE50830E10312000AE508308F
:1003AA00E203120842E50930E003120544E5093088
:1003BA00E1031209B1E50A30E1031208F1E5083058
:0503CA00E003120A85AA
:1003CF00D007D006D005D004D003D002D001D00082
:0B03DF00D0D0D082D083D0F0D0E0322C
:01000A0022D3
:10084200E4FDFF120A3F752902E4F52A0D7F0E121C
:100852000A3F7D487F11120A3F7D017F0E120A3F37
:0E0862007D907F14120A3FE4FD7F0E020A3FD4
:010A8500224E
:100544001209CDAE07EE30E20B54DFFD7F11120A23
:100554003FE4F52AEE30E408547FFD7F11120A3F90
:10056400E52A24FD603D14603D2404703CEE30E037
:10057400387B007A0079217F201207ACAF28AE27A0
:100584001200BC8E278F28E521546024E0600B24E0
:10059400E0600A244070090205AE020870020A7F76
:0905A400020A4C0206081206FAD4
:0105AD00222B
:0A0A4C00752A057D607F11020A3F44
:090A6A00752A03120A3B0206087A
:0A0A5600752A047D407F11020A3F5B
:0A0A6000E4F52A7D487F11020A3FE9
:100608001209CDEF20E150D3E52C9440E52B94005E
:1006180040047F408002AF2CAC07AB2DAA2EA92F37
:100628008C107F201208C8ECFFC3E52C9FF52CE541
:100638002B9400F52BEF252FF52FE4352EF52EE51D
:100648002C452B700B7D0A7F11120A3FE4F52A22F4
:070658007D027F11120A3F31
:01065F002278
:1006FA001209CDEF30E037AB2DAA2EA92F7F201299
:10070A0007ACEFFDC3E52C9DF52CE52B9400F52BEA
:10071A00EF252FF52FE4352EF52EE52C452B700B02
:0E072A007D487F11120A3FE4F52A22120A3B95
:01073800229E
:100A1500ED2420FF1207ACAE07E4FD7F14120A3F58
:020A2500AF061A
:010A270022AC
:1009B1007D011209CFAE07EE30E503120A3BEE309E
:0B09C100E207E4FD7F11120A3FC200B4
:0109CC002208
:1008F1007D017F0E120A3F7F141209D6AE07EE303A
:10090100E6077D807F14120A3FEE30E0031207DF15
:0109110022C3
:10000E001201000200000040BF3403FF0001010294
:10001E0000010902290001010080320904000002DA
:10002E0003010100092101010001224100070581A0
:10003E000308000A0705010301000A05010906A1CC
:10004E0001050719E029E7150025017501950881BD
:10005E000275089501810119002965150025657540
:10006E00089506810005081901290315002501755B
:10007E000195039102750595019101C004030904D0
:10008E00080353005400430022035300540043005E
:10009E00200055005300420020004B0065007900FF
:0E00AE0062006F00610072006400000001003B
:06000300011A00011B00C0
:10087000E52224FE601714601A24FA600D1460103B
:10088000146013240A701202091202093302095477
:0D089000020A00020A73020A76120A4C22C4
:10091200E529B40406E52164A16003020A4C752DA1
:1009220001752E00752F0085272B85282C120A6A47
:0109320022A2
:10093300E529B40406E52164216003020A4C752D00
:1009430001752E00752F0085272B85282C120A563A
:010953002281
:10095400E529B40406E52164A16003020A4C752D5F
:1009640000752E00752F1C752B00752C01120A6A58
:010974002260
:100A0000E529B40406E52164216003020A4C85242B
:050A10001C120A602227
:030A7300020A4C28
:030A7600020A4C25
:1007DF007B017A0079007D01120A15EF6401702206
:1007EF0053B4FE53B3FE53CC1F53CB1FC2C0900064
:1007FF0000E0FF13B392EFEFA2E1B392EEA2E2B3E8
:02080F0092ED68
:0108110022C4
:10024300E529640460030202E03000030202E020B7
:1002530001030202E0C201E4F511F512F513F514EE
:10026300F515F516F517F518E51A2481603E24C037
:10027300603524E0602C24F0602324F8601A24FC09
:10028300601124FE600814702675131E80217513F7
:100293001F801C751320801775132180127513227C
:1002A300800D75132380087513248003751325535C
:1002B300AF7FD2007D017F0E120A3FE4F51974115E
:1002C3002519F8E6FD7F21120A3F0519E519C394A4
:0D02D3000840EB7D017F11120A3F43AF8010
:0102E00022FB
:10066000E4F594F593F596F595FF20A40B20A406E8
:10067000C2A07FFE8002D2A020A50B20A506C2A0AA
:100680007FFD8002D2A020A60B20A606C2A07FFB81
:100690008002D2A020A70B20A706C2A07FF780026D
:1006A000D2A0EF651A60068F1A751B1422E51B6035
:0606B00005D51B02D2017A
:0106B6002221
:1005AE00E522B40D00504F9005BCF82828730205C3
:1005BE00E30205E60206040205E90206040205EC62
:1005CE000205EF0205F20205F50205F80205FB022F
:1005DE0005FE0206010200CE0203EA0204620207D1
:1005EE003902019E020A790206B70204D8020812E5
:0A05FE00020975020A7C120A4C2261
:1000CE00E52130E753E524704FE523704BE52864B6
:1000DE000245276003020197E521540F14601514A1
:1000EE00602D24026003020197E5267004E5256069
:1000FE0013020197E529B40408E5267004E525608E
:10010E0003020197752DFF752E00752FB88070E5CF
:10011E0029B40404E5266002806FE525540FF50B23
:10012E00E5251460302480705E74017E00A80B08F3
:10013E008005C333CE33CED8F9FFEF5530600B7543
:10014E002DFF752E00752FBA8009752DFF752E00A7
:10015E00752FB8802A74017E00A80B088005C33362
:10016E00CE33CED8F9FFEF5531600B752DFF752EBE
:10017E0000752FBA8009752DFF752E00752FB87575
:0F018E002B00752C0280058000020A4C120A6AB1
:01019D00223F
:1003EA00E529B40417E521B40212E5267063E52471
:1003FA00705FE523705BE528452760028053E52599
:10040A00540FF50BE52514602124807044AF0B745A
:10041A0001A807088002C333D8FCF45230AD0B7F21
:10042A000E120A3F7D407F11801BAF0B7401A80793
:10043A00088002C333D8FCF45231AD0B7F0E120A86
:10044A003F7D807F14120A3FE4FD7F0E120A3F802F
:07045A0003020A4C120A60C4
:010461002278
:10046200E529B40417E521B40212E5267061E524FA
:10047200705DE5237059E528452760028051E52526
:10048200540FF50BE52514602024807042AF0B74E5
:1004920001A807088002C333D8FC4230AD0B7F0E9F
:1004A200120A3F7D107F11801AAF0B7401A8070852
:1004B2008002C333D8FC4231AD0B7F0E120A3F7D5E
:1004C200207F14120A3FE4FD7F0E120A3F800302CE
:0504D2000A4C120A6053
:0104D7002202
:10073900E5217019E5267015E5257011E524700D80
:10074900E523C394805006E52845276003020A4C37
:1007590085230BAD0BE4FF120A3FE50B60057529F4
:09076900038003752902120A60E5
:010772002264
:10019E00E52120E70302022BE52424FE601C1460F7
:1001AE002A24E1606724217074752DFF752E007569
:1001BE002F0E752B00752C128066752DFF752E0077
:1001CE00752F20752B00752C298055E5231460188A
:1001DE0014602624027033752DFF752E00752F8A3C
:1001EE00752B00752C048038752DFF752E00752F1C
:1001FE008E752B00752C088027752DFF752E0075BA
:10020E002F96752B00752C2280168011752DFF757B
:10021E002E00752F49752B00752C418003020A4C58
:10022E00D3E52C9528E52B9527400685272B852889
:05023E002C120A6A22E7
:030A7900020A4C22
:1006B700E521B48018E5247014E5237010E5267051
:1006C7000CE5257008E528640145276003020A4CFC
:1006D700E529B4040B752DFF752E00752FBA800917
:1006E700752DFF752E00752FB8752B00752C01120F
:0306F7000A6A226A
:1004D800E52964026016E5217012E524700EE52610
:1004E800700AE5257006E52845276003020A4CE5F1
:1004F800236401703A752904F530F5317D017F0ECA
:10050800120A3F7D207F12120A3F7D087F10120ACF
:100518003F7D017F0E120A3FE4FD7F12120A3F7DE4
:10052800087F13120A3FE4FD7F0E120A3F80097507
:0C05380029037530FF7531FF120A6022A4
:10081200E529B40415E521B48110E524700CE52620
:100822007008E528640145276003020A4C752DFF14
:10083200752E00752FB8752B00752C01120A6A22CD
:10097500E529B40413E521B4010EE524700AE52642
:0F0985007006E52845276003020A4C120A60221B
:030A7C00020A4C1F
:030A7F00020A4C1C
:0400BC008E0B8F0C0C
:0A00C000850C0D850B0EAE0DAF0E82
:0100CA002213
:100A2800C202438E805389F0758A40758CA2D28C9D
:030A3800D2A9221E
:03000B00020A8264
:030A8200D202326B
:030000000202E118
:0C02E100787FE4F6D8FD75813102032817
:10089D00BB010689828A83E0225002E722BBFE0259
:0908AD00E32289828A83E493228C
:1008B600BB010689828A83F0225002F722BBFE0121
:0208C600F3221B
:1002ED000209E8E493A3F8E493A34003F68001F236
:1002FD0008DFF48029E493A3F85407240CC8C33312
:10030D00C4540F4420C8834004F456800146F6DFE0
:10031D00E4800B0102040810204080900003E47E6D
:10032D00019360BCA3FF543F30E509541FFEE493D5
:10033D00A360010ECF54C025E060A840B8E493A39C
:10034D00FAE493A3F8E493A3C8C582C8CAC583CAC7
:10035D00F0A3C8C582C8CAC583CADFE9DEE780BE7F
:0100090000F6
:00000001FF
